:020000040800F2
:1000000000800120193400086934000869340008B0
:1000100069340008693400086934000800000000F1
:10002000000000000000000000000000F10E0008C9
:10003000693400080000000041110008A9110008FF
:1000400000000000693400086934000869340008C1
:100050006934000869340008E10100080D02000855
:100060003902000865020008910200080000000043
:100070000000000000000000000000000000000080
:1000800000000000000000006934000800000000CB
:1000900000000000000000000000000069340008BB
:1000A00069340008693400086934000869340008BC
:1000B00069340008693400086934000869340008AC
:1000C000693400086934000869340008693400089C
:1000D0006934000869340008693400080000000031
:1000E0006934000869340008693400080000000021
:1000F0000000000000000000000000000000000000
:100100000000000069340008693400086934000800
:1001100000000000000000000000000000000000DF
:1001200000000000000000000000000000000000CF
:1001300000000000000000000000000000000000BF
:10014000000000000000000000000000693400080A
:1001500000000000000000000000000069340008FA
:100160006934000869340008000000000000000045
:10017000000000000000000000000000000000007F
:1001800000000000693400080000000000000000CA
:0401900069340008C6
:1001A00010B5054C237833B9044B13B10448AFF3B1
:1001B00000800123237010BD180000200000000003
:1001C000E034000808B5034B1BB103490348AFF303
:1001D000008008BD000000001C000020E034000882
:1001E00080B500AF074B1B68002B02D0054B1B6886
:1001F0009847054B5B69044A43F00103536100BF14
:1002000080BD00BF34000020003C014080B500AF3D
:10021000074B5B68002B02D0054B5B689847054B8A
:100220005B69044A43F00203536100BF80BD00BF15
:1002300034000020003C014080B500AF074B9B68B4
:10024000002B02D0054B9B689847054B5B69044A1D
:1002500043F00403536100BF80BD00BF34000020A1
:10026000003C014080B500AF074BDB68002B02D09B
:10027000054BDB689847054B5B69044A43F008036C
:10028000536100BF80BD00BF34000020003C01402E
:1002900080B500AF074B1B69002B02D0054B1B69D3
:1002A0009847054B5B69044A43F01003536100BF54
:1002B00080BD00BF34000020003C014080B483B00A
:1002C00000AF0346FB710B46BB7113467B71FB7994
:1002D000022B36D0022B4CDC002B02D0012B18D085
:1002E00047E0274B1B68BA795200032101FA02F25A
:1002F000D2431146224A0B401360214B1B68797987
:10030000BA79520001FA02F211461D4A0B431360FA
:100310002FE01C4B1B68BA795200032101FA02F24C
:10032000D2431146174A0B401360164B1B6879796C
:10033000BA79520001FA02F21146124A0B431360D5
:1003400017E0114B1B68BA795200032101FA02F23F
:10035000D24311460C4A0B4013600B4B1B68797952
:10036000BA79520001FA02F21146074A0B431360B0
:1003700000BF00BF0C37BD465DF8047B704700BF6F
:1003800000000240000402400008024080B483B034
:1003900000AF0346FB710B46BB7113467B717B7943
:1003A000012B2AD1FB79022B1CD0022B53DC002B12
:1003B00002D0012B0BD04EE02A4B5B68BA790121A9
:1003C00001FA02F21146274A0B43536043E0264BE1
:1003D0005B68BA79012101FA02F21146224A0B4305
:1003E000536038E0214B5B68BA79012101FA02F2CF
:1003F00011461E4A0B4353602DE0FB79022B1ED0A1
:10040000022B28DC002B02D0012B0CD023E0154B53
:100410005B68BA79012101FA02F2D2431146114A0E
:100420000B40536017E0104B5B68BA79012101FA69
:1004300002F2D24311460C4A0B4053600BE00B4BC7
:100440005B68BA79012101FA02F2D2431146074AE8
:100450000B40536000BF00BF0C37BD465DF8047B06
:10046000704700BF00000240000402400008024044
:1004700080B483B000AF0346FB710B46BB711346DB
:100480007B71FB79022B36D0022B4CDC002B02D087
:10049000012B18D047E0274B9B68BA795200032103
:1004A00001FA02F2D2431146224A0B409360214BDB
:1004B0009B687979BA79520001FA02F211461D4A15
:1004C0000B4393602FE01C4B9B68BA7952000321C9
:1004D00001FA02F2D2431146174A0B409360164BC1
:1004E0009B687979BA79520001FA02F21146124AF0
:1004F0000B43936017E0114B9B68BA7952000321BC
:1005000001FA02F2D24311460C4A0B4093600B4BA6
:100510009B687979BA79520001FA02F21146074ACA
:100520000B43936000BF00BF0C37BD465DF8047BF2
:10053000704700BF00000240000402400008024073
:1005400080B483B000AF0346FB710B46BB7113460A
:100550007B71FB79022B36D0022B4CDC002B02D0B6
:10056000012B18D047E0274BDB68BA7952000321F2
:1005700001FA02F2D2431146224A0B40D360214BCA
:10058000DB687979BA79520001FA02F211461D4A04
:100590000B43D3602FE01C4BDB68BA795200032178
:1005A00001FA02F2D2431146174A0B40D360164BB0
:1005B000DB687979BA79520001FA02F21146124ADF
:1005C0000B43D36017E0114BDB68BA79520003216B
:1005D00001FA02F2D24311460C4A0B40D3600B4B96
:1005E000DB687979BA79520001FA02F21146074ABA
:1005F0000B43D36000BF00BF0C37BD465DF8047BE2
:10060000704700BF000002400004024000080240A2
:1006100080B483B000AF03460A46FB711346BB713A
:10062000FB79022B1CD0022B25DC002B02D0012BE6
:100630000BD020E0134B5B69BA79012101FA02F279
:100640001146104A4B40536115E00F4B5B69BA7974
:10065000012101FA02F211460B4A4B4053610AE0B4
:100660000A4B5B69BA79012101FA02F21146074A85
:100670004B40536100BF00BF0C37BD465DF8047BA3
:10068000704700BF00000240000402400008024022
:1006900080B582B000AF78607B6818787B68597845
:1006A0007B689B781A46FFF709FE7B6818787B68A1
:1006B00059787B68DB781A46FFF768FE7B68187804
:1006C0007B6859787B681B791A46FFF7D1FE7B68F7
:1006D00018787B6859787B685B791A46FFF730FF9A
:1006E00000BF0837BD4680BD80B400AF134B1B6808
:1006F000124A43F400231360104B1B680F4A23F483
:10070000802313600D4B0D4A9B6893600B4B9B68D5
:100710000A4A43F001039360084B9B68074A23F0A1
:1007200002039360054B1B68044A43F48033136053
:1007300000BFBD465DF8047B704700BF0038024033
:1007400080B483B000AF786039607B68013B032BD5
:1007500036D801A252F823F0690700087F07000885
:1007600095070008AB070008194B1B6B01213A687D
:1007700001FA02F21146164A0B43136321E0144BAF
:100780005B6B01213A6801FA02F21146104A0B43F1
:10079000536316E00E4B1B6C01213A6801FA02F21A
:1007A00011460B4A0B4313640BE0094B5B6C0121B0
:1007B0003A6801FA02F21146054A0B43536400E01D
:1007C00000BF00BF0C37BD465DF8047B704700BF1B
:1007D0000038024080B58AB000AF78600023FB612A
:1007E00001F064FC654B1B68002B01D100F034F96B
:1007F000634B1A687B681340002B40F0A7807B682E
:10080000002B2DD008227B6813447A689A4227D2A5
:1008100008227B6813447B607B6803F00703002B8E
:1008200021D07B6823F0070308337A689A4214D2F8
:100830007B6823F0070308337B607B6803F00703C2
:10084000002B10D04FF0500383F31188BFF36F8F4C
:10085000BFF34F8F7B6100BFFEE700237B6002E0A8
:1008600000237B6000E000BF7B68002B6ED0454B0F
:100870001B687A689A4269D8434B3B62424B1B68BB
:100880007B6204E07B6A3B627B6A1B687B627B6AFB
:100890005B687A689A4203D97B6A1B68002BF1D1A6
:1008A000364B1B687A6A9A4250D03B6A1B68082212
:1008B0001344FB617B6A1A683B6A1A607B6A5A6858
:1008C0007B68D21A08235B009A421FD97A6A7B6838
:1008D0001344BB61BB6903F00703002B0AD04FF040
:1008E000500383F31188BFF36F8FBFF34F8F3B61CA
:1008F00000BFFEE77B6A5A687B68D21ABB695A6000
:100900007B6A7A685A60B86900F008F91D4B1A686A
:100910007B6A5B68D31A1B4A13601A4B1A681B4B1D
:100920001B689A4203D2174B1B68184A13607B6AF4
:100930005A68134B1B681A437B6A5A607B6A002211
:100940001A60134B1B680133114A136001F0BCFBA2
:10095000FB6903F00703002B0AD04FF0500383F329
:100960001188BFF36F8FBFF34F8FFB6000BFFEE7AF
:10097000FB6918462837BD4680BD00BF7C5000206B
:10098000905000208050002074500020845000209F
:100990008850002080B586B000AF78607B687B61AE
:1009A0007B68002B4DD008235B427A6913447B613E
:1009B0007B693B613B695A68244B1B681340002BE1
:1009C0000AD14FF0500383F31188BFF36F8FBFF349
:1009D0004F8FFB6000BFFEE73B691B68002B0AD00E
:1009E0004FF0500383F31188BFF36F8FBFF34F8F26
:1009F000BB6000BFFEE73B695A68144B1B6813409D
:100A0000002B1ED03B691B68002B1AD13B695A682A
:100A10000E4B1B68DB431A403B695A6001F046FBF2
:100A20003B695A680A4B1B681344094A13603869CA
:100A300000F074F8074B1B680133064A136001F09D
:100A400043FB00BF1837BD4680BD00BF905000205B
:100A5000805000208C50002080B485B000AF4FF44F
:100A6000A043BB60274BFB60FB6803F00703002B30
:100A70000CD0FB680733FB60FB6823F00703FB60C7
:100A8000BA68FB68D31A1F4A1344BB60FB687B60DB
:100A90001D4A7B6813601C4B00225A607B68BA6851
:100AA0001344FB600822FB689B1AFB60FB6823F081
:100AB0000703FB60FB68154A1360144B1B68002298
:100AC0005A60124B1B6800221A607B683B603B68CF
:100AD000FA68D21A3B685A600C4B1A683B681A6075
:100AE0003B685B680A4A13603B685B68094A1360AD
:100AF000094B4FF000421A6000BF1437BD465DF845
:100B0000047B704774000020745000207C5000204B
:100B100084500020805000209050002080B485B088
:100B200000AF7860284BFB6002E0FB681B68FB604D
:100B3000FB681B687A689A42F7D8FB68BB60FB6861
:100B40005B68BA6813447A689A4208D1FB685A68AD
:100B50007B685B681A44FB685A60FB687B607B6853
:100B6000BB607B685B68BA681A44FB681B689A4282
:100B700018D1FB681A68154B1B689A420DD07B6828
:100B80005A68FB681B685B681A447B685A60FB689C
:100B90001B681A687B681A6008E00C4B1A687B684F
:100BA0001A6003E0FB681A687B681A60FA687B6861
:100BB0009A4202D0FB687A681A6000BF1437BD46BB
:100BC0005DF8047B704700BF745000207C5000200B
:100BD00080B483B000AF78607B6803F108027B6863
:100BE0005A607B684FF0FF329A607B6803F108021D
:100BF0007B68DA607B6803F108027B681A617B68B6
:100C000000221A6000BF0C37BD465DF8047B7047B8
:100C100080B483B000AF78607B6800221A6100BFA7
:100C20000C37BD465DF8047B704780B485B000AFDB
:100C3000786039603B681B68BB60BB68B3F1FF3FFD
:100C400003D17B681B69FB600CE07B680833FB60A9
:100C500002E0FB685B68FB60FB685B681B68BA6866
:100C60009A42F6D2FB685A683B685A603B685B68F8
:100C70003A689A603B68FA689A60FB683A685A601A
:100C80003B687A681A617B681B685A1C7B681A602B
:100C900000BF1437BD465DF8047B704780B485B053
:100CA00000AF78607B681B69FB607B685B687A6873
:100CB00092689A607B689B687A6852685A60FB68A1
:100CC0005B687A689A4203D17B689A68FB685A60CD
:100CD0007B6800221A61FB681B685A1EFB681A6059
:100CE000FB681B6818461437BD465DF8047B7047E7
:100CF00080B582B000AF78600E4B1B684FF4167160
:100D0000184600F075FD03460B4A13600A4B1B683A
:100D1000012BF1D100210020FFF77AFC054B186868
:100D200000230022002100F085FB4FF4FA7001F04F
:100D300037F9E1E7945000209850002080B582B048
:100D400000AF78600E4B1B684FF41671184600F028
:100D50004FFD03460B4A13600A4B1B68012BF1D170
:100D6000074B186800230022002100F063FB4FF4BA
:100D7000FA7001F015F901210020FFF749FCE1E7C5
:100D8000945000209850002080B584B002AFFFF747
:100D9000ABFC00210120FFF7D3FC00237B600BE0BC
:100DA0007A681346DB009B1A1A4A13441846FFF769
:100DB0006FFC7B6801337B607B68012BF0D90322D9
:100DC0000021012000F0C8FA0346134A1360124BB9
:100DD0001B68002B06D0104B18680023002200214E
:100DE00000F028FB0023019301230093002332220B
:100DF00000210A4800F064FF0023019301230093BF
:100E0000002332220021064800F05AFF01F0FCF8CE
:100E1000FEE700BF0000002094500020F10C000805
:100E20003D0D000880B485B000AFF860B9607A600D
:100E3000FB68043BFB60FB684FF080721A60FB6844
:100E4000043BFB60BB6823F00102FB681A60FB688F
:100E5000043BFB600C4AFB681A60FB68143BFB60B8
:100E60007A68FB681A60FB68043BFB60FB686FF004
:100E700002021A60FB68203BFB60FB6818461437CF
:100E8000BD465DF8047B70478D0E000880B485B0C8
:100E900000AF00237B60124B1B68B3F1FF3F0AD009
:100EA0004FF0500383F31188BFF36F8FBFF34F8F61
:100EB000FB6000BFFEE74FF0500383F31188BFF3E0
:100EC0006F8FBFF34F8FBB6000BF00BF7B68002BED
:100ED000FCD000BF00BF1437BD465DF8047B7047EF
:100EE00010000020000000000000000000000000D2
:100EF000074B19680868B0E8F04F80F30988BFF322
:100F00006F8F4FF0000080F311887047AFF30080BF
:100F1000A450002000BF00BF08480068006880F3AC
:100F200008884FF0000080F3148862B661B6BFF302
:100F30004F8FBFF36F8F00DF00BF000008ED00E0B0
:100F400000BF00BF80B586B000AF464B1B68464A65
:100F500093420AD14FF0500383F31188BFF36F8F90
:100F6000BFF34F8F3B6100BFFEE73E4B1B683F4A1C
:100F700093420AD14FF0500383F31188BFF36F8F70
:100F8000BFF34F8FFB6000BFFEE7394B7B617B698E
:100F90001B78DBB27B607B69FF221A707B691B7850
:100FA000DBB2FB70FB78DBB203F05003DAB2314BFB
:100FB0001A70314B07221A6009E02F4B1B68013B66
:100FC0002D4A1360FB78DBB25B00DBB2FB70FB7871
:100FD000DBB203F08003802BEFD0274B1B68C3F1FB
:100FE0000703042B0AD04FF0500383F31188BFF39B
:100FF0006F8FBFF34F8FBB6000BFFEE71E4B1B68B8
:101000001B021D4A13601C4B1B6803F4E0631A4A61
:1010100013607B68DAB27B691A70184B1B68174A39
:1010200043F470031360154B1B68144A43F070437C
:10103000136000F0DBF8124B00221A6000F0F0F8A9
:10104000104B1B680F4A43F040431360FFF764FFE7
:1010500001F05CFAFFF71AFF002318461837BD4667
:1010600080BD00BF00ED00E071C20F4170C20F41B2
:1010700000E400E09C500020A050002020ED00E0A3
:101080001000002034EF00E080B483B000AF4FF0D8
:10109000500383F31188BFF36F8FBFF34F8F7B60D3
:1010A00000BF0F4B1B6801330D4A13600C4B1B68CC
:1010B000012B0FD10B4B1B68DBB2002B0AD04FF07A
:1010C000500383F31188BFF36F8FBFF34F8F3B60E3
:1010D00000BFFEE700BF0C37BD465DF8047B7047DC
:1010E0001000002004ED00E080B483B000AF124B8C
:1010F0001B68002B0AD14FF0500383F31188BFF314
:101100006F8FBFF34F8F7B6000BFFEE70A4B1B68FA
:10111000013B094A1360084B1B68002B05D10023D3
:101120003B603B6883F3118800BF00BF0C37BD46AE
:101130005DF8047B704700BF100000200000000035
:10114000EFF30980BFF36F8F154B1A681EF0100F75
:1011500008BF20ED108A20E9F04F10602DE909004A
:101160004FF0500080F31188BFF34F8FBFF36F8FA4
:1011700001F0CCF94FF0000080F3118809BC196828
:101180000868B0E8F04F1EF0100F08BFB0EC108AEE
:1011900080F30988BFF36F8F704700BFAFF3008003
:1011A000A450002000BF00BF80B582B000AF4FF058
:1011B000500383F31188BFF36F8FBFF34F8F7B60B2
:1011C00000BF01F08DF80346002B03D0064B4FF013
:1011D00080521A6000233B603B6883F3118800BF94
:1011E00000BF0837BD4680BD04ED00E080B400AF0D
:1011F000084B00221A60084B00221A60074B46F287
:10120000A7121A60034B07221A6000BFBD465DF8A3
:10121000047B704710E000E018E000E014E000E01C
:10122000DFF80C00016841F47001016070470000B4
:1012300088ED00E000BF00BF80B586B000AF7860E9
:10124000396001237B617B683B613B69002B0AD1DC
:101250004FF0500383F31188BFF36F8FBFF34F8FAD
:10126000FB6000BFFEE73B69002B5DD03B69DB6B99
:10127000002B59D03B691A6C3B69DB6B0021A3FB47
:101280000223002B00D001210B46002B4CD1FFF78D
:10129000FBFE3B691A683B69DB6B3969096C01FB32
:1012A00003F31A443B699A603B6900229A633B69E5
:1012B0001A683B695A603B691A683B69DB6B013B02
:1012C0003969096C01FB03F31A443B69DA603B6935
:1012D000FF2283F844203B69FF2283F845203B68C6
:1012E000002B14D13B691B69002B1AD03B691033CA
:1012F000184601F0D1F90346002B12D0154B4FF0E0
:1013000080521A60BFF34F8FBFF36F8F09E03B69C4
:1013100010331846FFF75CFC3B6924331846FFF78F
:1013200057FCFFF7E1FE01E000237B617B69002BA6
:101330000AD14FF0500383F31188BFF36F8FBFF3CF
:101340004F8FBB6000BFFEE77B6918461837BD466C
:1013500080BD00BF04ED00E080B58AB002AFF86048
:10136000B9601346FB710023FB61FB68002B2ED094
:101370000021BA68FB68A3FB0223002B00D00121E7
:101380000B46002B23D1FB68BA6802FB03F313F171
:10139000490F1CD8FB68BA6802FB03F3BB61BB6949
:1013A00048331846FFF716FAF861FB69002B1CD08A
:1013B000FB697B617B6948337B61FA79FB69009348
:1013C00013467A69B968F86800F014F80DE0FB6913
:1013D000002B0AD14FF0500383F31188BFF36F8FB6
:1013E000BFF34F8F3B6100BFFEE7FB691846203714
:1013F000BD4680BD80B584B000AFF860B9607A604A
:10140000FB70BB68002B03D1BB69BA691A6002E0AC
:10141000BB697A681A60BB69FA68DA63BB69BA6843
:101420001A640121B869FFF707FF00BF1037BD46F6
:1014300080BD000080B58EB000AFF860B9607A6002
:101440003B6000237B63FB683B633B6B002B0AD153
:101450004FF0500383F31188BFF36F8FBFF34F8FAB
:10146000BB6200BFFEE7BB68002B03D13B6B1B6C6C
:10147000002B01D1012300E00023002B0AD14FF003
:10148000500383F31188BFF36F8FBFF34F8F7B62DD
:1014900000BFFEE73B68022B03D13B6BDB6B012BEC
:1014A00001D1012300E00023002B0AD14FF05003AB
:1014B00083F31188BFF36F8FBFF34F8F3B6200BF81
:1014C000FEE701F0B1FA0346002B02D17B68002B46
:1014D00001D1012300E00023002B0AD14FF050037B
:1014E00083F31188BFF36F8FBFF34F8FFB6100BF92
:1014F000FEE7FFF7C9FD3B6B9A6B3B6BDB6B9A42D8
:1015000002D33B68022B29D13A68B968386B00F0E6
:1015100093FAF8623B6B5B6A002B10D03B6B243371
:10152000184601F0B9F80346002B13D03F4B4FF09B
:1015300080521A60BFF34F8FBFF36F8F0AE0FB6AD0
:10154000002B07D0394B4FF080521A60BFF34F8FFA
:10155000BFF36F8FFFF7C8FD012363E07B68002BAB
:1015600003D1FFF7C1FD00235CE07B6B002B06D1AC
:1015700007F11403184601F065F901237B63FFF7B7
:10158000B3FD00F093FDFFF77FFD3B6B93F8443014
:101590005BB2B3F1FF3F03D13B6B002283F84420E1
:1015A0003B6B93F845305BB2B3F1FF3F03D13B6B2C
:1015B000002283F84520FFF797FD3A1D07F1140339
:1015C0001146184601F054F90346002B24D1386B1C
:1015D00000F02AFB0346002B18D03B6B10337A68CF
:1015E0001146184600F0EEFF386B00F0B5FA00F037
:1015F0006BFD0346002B7FF47CAF0C4B4FF0805209
:101600001A60BFF34F8FBFF36F8F72E7386B00F034
:10161000A3FA00F059FD6CE7386B00F09DFA00F07A
:1016200053FD002318463837BD4680BD04ED00E069
:1016300080B58CB000AFF860B9607A600023FB62BF
:10164000FB68BB62BB6A002B0AD14FF0500383F3E7
:101650001188BFF36F8FBFF34F8F3B6200BFFEE770
:10166000BB68002B03D1BB6A1B6C002B01D101238B
:1016700000E00023002B0AD14FF0500383F31188C0
:10168000BFF36F8FBFF34F8FFB6100BFFEE701F029
:10169000CBF90346002B02D17B68002B01D101233B
:1016A00000E00023002B0AD14FF0500383F3118890
:1016B000BFF36F8FBFF34F8FBB6100BFFEE7FFF734
:1016C000E3FCBB6A9B6B7B627B6A002B1FD0B96813
:1016D000B86A00F01BFA7B6A5A1EBB6A9A63BB6A3F
:1016E0001B69002B0FD0BB6A1033184600F0D4FFE3
:1016F0000346002B07D03D4B4FF080521A60BFF3DA
:101700004F8FBFF36F8FFFF7EFFC012369E07B681A
:10171000002B03D1FFF7E8FC002362E0FB6A002BFB
:1017200006D107F11003184601F08CF80123FB6283
:10173000FFF7DAFC00F0BAFCFFF7A6FCBB6A93F8EF
:1017400044305BB2B3F1FF3F03D1BB6A002283F8A0
:101750004420BB6A93F845305BB2B3F1FF3F03D13D
:10176000BB6A002283F84520FFF7BEFC3A1D07F153
:1017700010031146184601F07BF80346002B23D1D5
:10178000B86A00F03BFA0346002B17D0BB6A24333B
:101790007A681146184600F015FFB86A00F0DCF9C7
:1017A00000F092FC0346002B89D1104B4FF0805281
:1017B0001A60BFF34F8FBFF36F8F80E7B86A00F0F6
:1017C000CBF900F081FC7AE7B86A00F0C5F900F0C7
:1017D0007BFCB86A00F012FA0346002B3FF46FAFAF
:1017E000002318463037BD4680BD00BF04ED00E041
:1017F00080B58EB000AF7860396000237B637B6872
:10180000FB6200233B63FB6A002B0AD14FF05003BD
:1018100083F31188BFF36F8FBFF34F8F3B6200BF1D
:10182000FEE7FB6A1B6C002B0AD04FF0500383F3DA
:101830001188BFF36F8FBFF34F8FFB6100BFFEE7CF
:1018400001F0F2F80346002B02D13B68002B01D1D6
:10185000012300E00023002B0AD14FF0500383F353
:101860001188BFF36F8FBFF34F8FBB6100BFFEE7DF
:10187000FFF70AFCFB6A9B6BBB62BB6A002B24D0A0
:10188000BB6A5A1EFB6A9A63FB6A1B68002B04D171
:1018900001F0E2FA0246FB6A9A60FB6A1B69002BC0
:1018A0000FD0FB6A1033184600F0F6FE0346002BFB
:1018B00007D0544B4FF080521A60BFF34F8FBFF3E5
:1018C0006F8FFFF711FC012397E03B68002B11D1CC
:1018D0003B6B002B0AD04FF0500383F31188BFF30A
:1018E0006F8FBFF34F8F7B6100BFFEE7FFF7FCFBFD
:1018F000002382E07B6B002B06D107F10C03184616
:1019000000F0A0FF01237B63FFF7EEFB00F0CEFBAE
:10191000FFF7BAFBFB6A93F844305BB2B3F1FF3FC9
:1019200003D1FB6A002283F84420FB6A93F8453018
:101930005BB2B3F1FF3F03D1FB6A002283F845207D
:10194000FFF7D2FB3A4607F10C031146184600F0A8
:101950008FFF0346002B32D1F86A00F04FF903469F
:10196000002B26D0FB6A1B68002B09D1FFF78CFBEC
:10197000FB6A9B68184601F075F83863FFF7B4FB03
:10198000FB6A24333A681146184600F01BFEF86AD9
:1019900000F0E2F800F098FB0346002B7FF468AFFC
:1019A000184B4FF080521A60BFF34F8FBFF36F8F09
:1019B0005EE7F86A00F0D0F800F086FB58E7F86AB6
:1019C00000F0CAF800F080FBF86A00F017F903464F
:1019D000002B3FF44DAF3B6B002B0DD0FFF754FBBA
:1019E000F86A00F011F87862FB6A9B68796A184619
:1019F00001F07AF9FFF778FB002318463837BD4627
:101A000080BD00BF04ED00E080B485B000AF786019
:101A10007B685B6A002B06D07B681B6B1B68C3F17D
:101A20000503FB6001E00023FB60FB6818461437E8
:101A3000BD465DF8047B704780B586B000AFF860A6
:101A4000B9607A6000237B61FB689B6B3B61FB683C
:101A50001B6C002B0DD1FB681B68002B4DD1FB6864
:101A60009B68184601F09CF87861FB6800229A6038
:101A700043E07B68002B19D1FB685868FB681B6C3E
:101A80001A46B96801F016FDFB685A68FB681B6CC2
:101A90001A44FB685A60FB685A68FB689B689A4264
:101AA0002BD3FB681A68FB685A6026E0FB68D8688D
:101AB000FB681B6C1A46B96801F0FCFCFB68DA682D
:101AC000FB681B6C5B421A44FB68DA60FB68DA68EF
:101AD000FB681B689A4207D2FB689A68FB681B6C1C
:101AE0005B421A44FB68DA607B68022B05D13B69D4
:101AF000002B02D03B69013B3B613B695A1CFB68F0
:101B00009A637B6918461837BD4680BD80B582B0A0
:101B100000AF786039607B681B6C002B18D07B6845
:101B2000DA687B681B6C1A447B68DA607B68DA6869
:101B30007B689B689A4203D37B681A687B68DA608B
:101B40007B68D9687B681B6C1A46386801F0B2FC68
:101B500000BF0837BD4680BD80B584B000AF786057
:101B6000FFF792FA7B6893F84530FB7311E07B68CE
:101B70005B6A002B12D07B682433184600F08CFD82
:101B80000346002B01D000F0D1FEFB7B013BDBB212
:101B9000FB7397F90F30002BE9DC00E000BF7B6896
:101BA000FF2283F84520FFF79FFAFFF76DFA7B6865
:101BB00093F84430BB7311E07B681B69002B12D093
:101BC0007B681033184600F067FD0346002B01D0F8
:101BD00000F0ACFEBB7B013BDBB2BB7397F90E3070
:101BE000002BE9DC00E000BF7B68FF2283F8442083
:101BF000FFF77AFA00BF1037BD4680BD80B584B0CC
:101C000000AF7860FFF740FA7B689B6B002B02D136
:101C10000123FB6001E00023FB60FFF765FAFB682E
:101C200018461037BD4680BD80B584B000AF7860DF
:101C3000FFF72AFA7B689A6B7B68DB6B9A4202D1CA
:101C40000123FB6001E00023FB60FFF74DFAFB6816
:101C500018461037BD4680BD80B586B000AFF8602D
:101C6000B9607A60FB687B61FFF70EFA7B6993F8D5
:101C700044305BB2B3F1FF3F03D17B69002283F8AC
:101C800044207B6993F845305BB2B3F1FF3F03D149
:101C90007B69002283F84520FFF726FA7B699B6B5E
:101CA000002B06D17B6924337A68B968184600F0A6
:101CB000ADFC7869FFF750FF00BF1837BD4680BD07
:101CC00080B58CB004AFF860B9603B601346FB8010
:101CD000FB889B001846FEF77DFD78617B69002B31
:101CE0000ED05020FEF776FDF861FB69002B03D083
:101CF000FB697A691A6305E07869FEF74BFE01E03B
:101D00000023FB61FB69002B13D0FA8800230393A7
:101D1000FB690293FB6A0193BB6A00933B68B96855
:101D2000F86800F00EF8F86900F0A8F80123BB612C
:101D300002E04FF0FF33BB61BB6918462037BD4658
:101D400080BD80B588B000AFF860B9607A603B6054
:101D50003B6B1A6B7B6803F18043013B9B00134490
:101D6000BB61BB6923F00703BB61BB6903F00703D9
:101D7000002B0AD04FF0500383F31188BFF36F8F0D
:101D8000BFF34F8F7B6100BFFEE7BB68002B1FD006
:101D90000023FB6112E0BA68FB69134419783A6BBF
:101DA000FB69134434330A461A70BA68FB6913445A
:101DB0001B78002B06D0FB690133FB61FB69092B03
:101DC000E9D900E000BF3B6B002283F83D2003E02F
:101DD0003B6B002283F83420BB6A042B0AD94FF0F6
:101DE000500383F31188BFF36F8FBFF34F8F3B61B5
:101DF00000BFFEE7BB6A042B01D90423BB623B6B27
:101E0000BA6ADA623B6BBA6A1A643B6B00225A64A4
:101E10003B6B04331846FEF7FBFE3B6B183318464A
:101E2000FEF7F6FE3B6B3A6B1A61BB6AC3F1050223
:101E30003B6B9A613B6B3A6B5A623B6B48330422B3
:101E40000021184601F044FB3B6B4C33012200217A
:101E5000184601F03DFB3A68F968B869FEF7E2FF01
:101E600002463B6B1A60FB6A002B02D0FB6A3A6B9E
:101E70001A6000BF2037BD4680BD000080B584B029
:101E800000AF7860FFF700F93E4B1B6801333D4A15
:101E900013603D4B1B68002B09D13B4A7B681360E4
:101EA000384B1B68012B10D100F064FD0DE0374B5F
:101EB0001B68002B09D1344B1B68DA6A7B68DB6A2C
:101EC0009A4202D8304A7B681360314B1B68013359
:101ED0002F4A13607B68DB6A01229A402D4B1B68F6
:101EE00013432C4A13607B68DA6A2B4913469B0024
:101EF00013449B000B4404331B68FB607B68FA6847
:101F00009A60FB689A687B68DA60FB689B687A680D
:101F100004325A607B681A1DFB689A607B68DA6A33
:101F200013469B0013449B001B4A1A447B685A616A
:101F30007B68DA6A184913469B0013449B000B44E4
:101F40001B68591C144813469B0013449B00034410
:101F50001960FFF7C9F80D4B1B68002B0ED00A4B18
:101F60001B68DA6A7B68DB6A9A4207D20B4B4FF038
:101F700080521A60BFF34F8FBFF36F8F00BF1037CF
:101F8000BD4680BD50510020A45000205C5100206F
:101F90006C51002058510020A850002004ED00E0B2
:101FA00080B584B000AF78600023FB607B68002BB5
:101FB00017D0134B1B68002B0AD04FF0500383F34C
:101FC0001188BFF36F8FBFF34F8FBB6000BFFEE779
:101FD00000F06CF80021786800F052FF00F074F80F
:101FE000F860FB68002B07D1064B4FF080521A6057
:101FF000BFF34F8FBFF36F8F00BF1037BD4680BD5B
:102000007851002004ED00E080B586B002AF204B8F
:10201000019300230093002380221E491E48FFF7EE
:102020004FFEF860FB68012B02D100F07DFFF860E5
:10203000FB68012B16D14FF0500383F31188BFF3D7
:102040006F8FBFF34F8FBB6000BF144B4FF0FF3259
:102050001A60134B01221A60124B00221A60FEF71D
:1020600071FF0EE0FB68B3F1FF3F0AD14FF0500360
:1020700083F31188BFF36F8FBFF34F8F7B6000BF77
:10208000FEE7094B1B6800BF1037BD4680BD00BF8F
:1020900074510020F83400084529000870510020D0
:1020A0005C510020545100201400002080B400AF87
:1020B000044B1B680133034A136000BFBD465DF843
:1020C000047B70477851002080B588B000AF0023B2
:1020D000FB610023BB61714B1B68002B0AD14FF0E1
:1020E000500383F31188BFF36F8FBFF34F8F7B6073
:1020F00000BFFEE7FEF7C8FF684B1B68013B674A5D
:102100001360664B1B68002B40F0C080644B1B685B
:10211000002B00F0BB808AE0624BDB68DB68FB6170
:10212000FB699B6A3B61FB69DB69FA69126A9A6029
:10213000FB691B6AFA69D2695A603B695A68FB6994
:1021400018339A4203D1FB691A6A3B695A60FB69EA
:1021500000229A623B691B685A1E3B691A60FB6940
:102160005B69FB60FB699B68FA69D2689A60FB69EE
:10217000DB68FA6992685A60FB685A68FB69043345
:102180009A4203D1FB69DA68FB685A60FB69002256
:102190005A61FB681B685A1EFB681A60FB69DB6AA0
:1021A00001229A40404B1B6813433F4A1360FB696E
:1021B000DA6A3E4913469B0013449B000B440433E8
:1021C0001B68BB60FB69BA689A60BB689A68FB6968
:1021D000DA60BB689B68FA6904325A60FB691A1DB1
:1021E000BB689A60FB69DA6A13469B0013449B0044
:1021F0002E4A1A44FB695A61FB69DA6A2B49134675
:102200009B0013449B000B441B68591C2748134632
:102210009B0013449B0003441960FB69DA6A244B5A
:102220001B68DB6A9A4202D3224B01221A601D4BC3
:102230001B68002B7FF470AFFB69002B01D000F00E
:10224000D7FB1D4B1B687B617B69002B10D000F016
:1022500047F80346002B02D0164B01221A607B6917
:10226000013B7B617B69002BF1D1134B00221A608B
:10227000104B1B68002B09D00123BB610F4B4FF0A3
:1022800080521A60BFF34F8FBFF36F8FFEF72CFFA2
:10229000BB6918462037BD4680BD00BF785100207D
:1022A000505100203C51002058510020A8500020DF
:1022B000A4500020645100206051002004ED00E093
:1022C00080B483B000AF054B1B687B607B68184609
:1022D0000C37BD465DF8047B704700BF54510020A9
:1022E00080B58AB000AF00237B627D4B1B68002B5A
:1022F00040F0EC807B4B1B6801333B62794A3B6AC0
:1023000013603B6A002B20D1774B1B681B68002BA6
:102310000AD04FF0500383F31188BFF36F8FBFF3E0
:102320004F8F7B6000BFFEE76F4B1B68FB616F4BFD
:102330001B686D4A13606D4AFB6913606C4B1B6828
:1023400001336B4A136000F053FB6A4B1B683A6A17
:102350009A42C0F0A680644B1B681B68002B04D116
:10236000644B4FF0FF321A609BE05F4B1B68DB68E9
:10237000DB68BB61BB695B687B613A6A7B699A42D7
:1023800003D25C4A7B6913608BE0BB695B693B618C
:10239000BB699B68BA69D2689A60BB69DB68BA6935
:1023A00092685A603B695A68BB6904339A4203D108
:1023B000BB69DA683B695A60BB6900225A613B69B4
:1023C0001B685A1E3B691A60BB699B6A002B1ED0B2
:1023D000BB699B6AFB60BB69DB69BA69126A9A6078
:1023E000BB691B6ABA69D2695A60FB685A68BB69E3
:1023F00018339A4203D1BB691A6AFB685A60BB69F9
:1024000000229A62FB681B685A1EFB681A60BB694F
:10241000DB6A01229A40384B1B681343364A13602B
:10242000BB69DA6A354913469B0013449B000B4491
:1024300004331B68BB60BB69BA689A60BB689A6862
:10244000BB69DA60BB689B68BA6904325A60BB69D1
:102450001A1DBB689A60BB69DA6A13469B00134475
:102460009B00264A1A44BB695A61BB69DA6A234950
:1024700013469B0013449B000B441B68591C1F48C8
:1024800013469B0013449B0003441960BB69DA6A3E
:102490001B4B1B68DB6A9A42FFF45DAF01237B6232
:1024A00059E7174B1B68DA6A144913469B0013441B
:1024B0009B000B441B68012B01D901237B62114B4C
:1024C0001B68002B07D001237B6204E00E4B1B68C6
:1024D00001330D4A13607B6A18462837BD4680BD1C
:1024E00078510020545100203451002038510020F0
:1024F000685100207051002058510020A850002041
:10250000A4500020645100206051002080B487B0A6
:1025100000AF274B1B68002B03D0264B01221A600B
:102520003FE0244B00221A60234B1B68FB60FB68D2
:10253000B3FA83F3FB72FB7AC3F11F037B611F497C
:102540007A6913469B0013449B000B441B68002BC5
:102550000AD14FF0500383F31188BFF36F8FBFF39D
:102560004F8F7B6000BFFEE77A6913469B001344E0
:102570009B00124A13443B613B695B685A683B69A4
:102580005A603B695A683B6908339A4204D13B69F7
:102590005B685A683B695A603B695B68DB68084A5C
:1025A000136000BF1C37BD465DF8047B704700BF59
:1025B000785100206451002058510020A85000207C
:1025C000A450002080B584B000AF786039607B688B
:1025D000002B0AD14FF0500383F31188BFF36F8FA4
:1025E000BFF34F8FFB6000BFFEE7074B1B6818333C
:1025F00019467868FEF719FB0121386800F040FCA5
:1026000000BF1037BD4680BDA450002080B586B005
:1026100000AFF860B9607A60FB68002B0AD14FF018
:10262000500383F31188BFF36F8FBFF34F8F3B616C
:1026300000BFFEE7FB685B687B61164B1B687A692D
:10264000DA61144B1B687A6992681A62114B1A6836
:102650007B699B6818325A600E4B1B6803F11802A5
:102660007B699A600B4B1B68FA689A62FB681B686F
:102670005A1CFB681A607B68002B02D04FF0FF33B6
:10268000BB607968B86800F0FBFB00BF1837BD4637
:1026900080BD00BFA450002080B48BB000AF786034
:1026A0007B68DB68DB683B623B6A002B0AD14FF03A
:1026B000500383F31188BFF36F8FBFF34F8FFB601D
:1026C00000BFFEE73B6A9B6AFB613B6ADB693A6AD3
:1026D000126A9A603B6A1B6A3A6AD2695A60FB695D
:1026E0005A683B6A18339A4203D13B6A1A6AFB69FB
:1026F0005A603B6A00229A62FB691B685A1EFB699A
:102700001A604A4B1B68002B5ED13B6A5B697B6198
:102710003B6A9B683A6AD2689A603B6ADB683A6AAD
:1027200092685A607B695A683B6A04339A4203D1C3
:102730003B6ADA687B695A603B6A00225A617B69AE
:102740001B685A1E7B691A603B6ADB6A01229A4049
:10275000374B1B681343364A13603B6ADA6A3549C4
:1027600013469B0013449B000B4404331B683B61DE
:102770003B6A3A699A603B699A683B6ADA603B69EE
:102780009B683A6A04325A603B6A1A1D3B699A6038
:102790003B6ADA6A13469B0013449B00254A1A449D
:1027A0003B6A5A613B6ADA6A224913469B0013442A
:1027B0009B000B441B68591C1E4813469B00134486
:1027C0009B00034419601BE01B4B5B68BB613B6AC9
:1027D000BA69DA61BB699A683B6A1A62BB699B682D
:1027E0003A6A18325A603B6A03F11802BB699A6070
:1027F0003B6A114A9A62104B1B6801330E4A136000
:102800003B6ADA6A0D4B1B68DB6A9A4205D90123E1
:102810007B620B4B01221A6001E000237B627B6A22
:1028200018462C37BD465DF8047B70477851002070
:1028300058510020A85000203C510020A4500020F6
:102840006451002080B483B000AF7860064B1A68F2
:102850007B681A60054B1A687B685A6000BF0C37AA
:10286000BD465DF8047B704768510020545100203C
:1028700080B588B000AF786039607B68002B0AD1E2
:102880004FF0500383F31188BFF36F8FBFF34F8F67
:102890003B6100BFFEE73B68002B0AD14FF05003BD
:1028A00083F31188BFF36F8FBFF34F8FFB6000BFBF
:1028B000FEE7FEF7E9FB1B4B1B68BB617B685B68AF
:1028C000BA69D31A7B617B681A68174B1B689A42F6
:1028D0000AD07B685B68BA699A4205D30123FB6121
:1028E0003B6800221A6015E03B681B687A699A42CF
:1028F0000BD23B681A687B69D21A3B681A60786809
:10290000FFF7A0FF0023FB6104E03B6800221A6090
:102910000123FB61FEF7E8FBFB6918462037BD4643
:1029200080BD00BF545100206851002080B400AF2A
:10293000034B01221A6000BFBD465DF8047B70475F
:102940006451002080B582B000AF786000F048F894
:10295000064B1B68012BF9D9054B4FF080521A60CA
:10296000BFF34F8FBFF36F8FF0E700BFA850002079
:1029700004ED00E080B582B000AF00237B600CE086
:102980007A6813469B0013449B000F4A1344184671
:10299000FEF71EF97B6801337B607B68042BEFD95F
:1029A0000A48FEF715F90A48FEF712F90948FEF73A
:1029B0000FF9094B054A1A60084B054A1A6000BF17
:1029C0000837BD4680BD00BFA85000200C51002034
:1029D000205100203C51002034510020385100206B
:1029E00080B400AF00BFBD465DF8047B70470000B7
:1029F00080B400AF0A4B1B681B68002B04D1094B45
:102A00004FF0FF321A6005E0054B1B68DB681B685E
:102A1000044A136000BFBD465DF8047B704700BFE9
:102A2000345100207051002080B483B000AF0B4BB4
:102A30001B68002B02D101237B6008E0084B1B6858
:102A4000002B02D102237B6001E000237B607B68C6
:102A500018460C37BD465DF8047B70475C5100207A
:102A60007851002080B586B000AF78607B683B610C
:102A700000237B617B68002B00F087803B69DA6A6A
:102A8000444B1B68DB6A9A4276D23B699B69002BF8
:102A900006DB404B1B68DB6AC3F105023B699A61A8
:102AA0003B6959693B69DA6A13469B0013449B00F2
:102AB000394A1344994257D13B6904331846FEF70B
:102AC000EDF80346002B0AD13B69DB6A012202FACA
:102AD00003F3DA43314B1B681340304A13602D4B2C
:102AE0001B68DA6A3B69DA623B69DB6A01229A4059
:102AF0002A4B1B681343294A13603B69DA6A26494B
:102B000013469B0013449B000B4404331B68FB607B
:102B10003B69FA689A60FB689A683B69DA60FB680F
:102B20009B683A6904325A603B691A1DFB689A60D7
:102B30003B69DA6A13469B0013449B00164A1A4409
:102B40003B695A613B69DA6A134913469B00134497
:102B50009B000B441B68591C0F4813469B001344F1
:102B60009B000344196004E00A4B1B68DA6A3B6966
:102B7000DA6201237B6108E03B691A6C054B1B6834
:102B8000DB6A9A4201D201237B617B6918461837C0
:102B9000BD4680BDA4500020A85000205851002000
:102BA00080B588B000AF78607B68BB610023FB61B3
:102BB0007B68002B00F08C80484B1B68BA699A42F6
:102BC0000AD04FF0500383F31188BFF36F8FBFF328
:102BD0004F8F3B6100BFFEE7BB695B6C002B0AD1E6
:102BE0004FF0500383F31188BFF36F8FBFF34F8F04
:102BF000FB6000BFFEE7BB695B6C5A1EBB695A6491
:102C0000BB69DA6ABB691B6C9A4261D0BB695B6CB9
:102C1000002B5DD1BB6904331846FEF73FF803462D
:102C2000002B0AD1BB69DB6A012202FA03F3DA4303
:102C30002B4B1B6813402A4A1360BB691A6CBB6993
:102C4000DA62BB69DB6AC3F10502BB699A61BB69E1
:102C5000DB6A01229A40224B1B681343204A13600F
:102C6000BB69DA6A1F4913469B0013449B000B445F
:102C700004331B687B61BB697A699A607B699A68D7
:102C8000BB69DA607B699B68BA6904325A60BB69C8
:102C90001A1D7B699A60BB69DA6A13469B0013446C
:102CA0009B00104A1A44BB695A61BB69DA6A0D4934
:102CB00013469B0013449B000B441B68591C094896
:102CC00013469B0013449B00034419600123FB61DE
:102CD000FB6918462037BD4680BD00BFA4500020C8
:102CE00058510020A850002080B58AB000AF78600D
:102CF00039607B683B620123FB617B68002B00F03D
:102D0000A1803B6A5B6C002B0AD14FF0500383F328
:102D10001188BFF36F8FBFF34F8F3B6100BFFEE79A
:102D20003B6A1B6C3A689A4202D93B687B6202E0BC
:102D30003B6A1B6C7B623B6ADB6A7A6A9A4200F0F0
:102D400081803B6A5B6CFA699A427BD13F4B1B687E
:102D50003A6A9A420AD14FF0500383F31188BFF3C5
:102D60006F8FBFF34F8FFB6000BFFEE73B6ADB6AEC
:102D7000BB613B6A7A6ADA623B6A9B69002B04DBBF
:102D80007B6AC3F105023B6A9A613B6A5969BA6979
:102D900013469B0013449B002D4A1344994251D182
:102DA0003B6A04331846FDF779FF0346002B0AD12E
:102DB0003B6ADB6A012202FA03F3DA43254B1B6804
:102DC0001340244A13603B6ADB6A01229A40214B7C
:102DD0001B6813431F4A13603B6ADA6A1C49134697
:102DE0009B0013449B000B4404331B687B613B6ACC
:102DF0007A699A607B699A683B6ADA607B699B684A
:102E00003A6A04325A603B6A1A1D7B699A603B6ACF
:102E1000DA6A13469B0013449B000D4A1A443B6A2E
:102E20005A613B6ADA6A0A4913469B0013449B00C5
:102E30000B441B68591C064813469B0013449B0017
:102E40000344196000BF2837BD4680BDA450002050
:102E5000A85000205851002080B400AF074B1B68D9
:102E6000002B04D0054B1B685A6C01325A64034B8B
:102E70001B681846BD465DF8047B7047A4500020CF
:102E800080B584B000AF78603960214B1B68FB606F
:102E9000204B1B6804331846FDF700FF0346002B48
:102EA0000BD11C4B1B68DB6A012202FA03F3DA43E5
:102EB000194B1B681340184A1360FA687B68134467
:102EC000BB60144B1B68BA685A60BA68FB689A42C8
:102ED00009D2124B1A680F4B1B680433194610466F
:102EE000FDF7A3FE10E00E4B1A680A4B1B68043373
:102EF00019461046FDF799FE0A4B1B68BA689A42BC
:102F000002D2084ABB68136000BF1037BD4680BDBF
:102F100054510020A4500020585100203851002066
:102F2000345100207051002080B584B002AF0023DE
:102F30007B6000F047FA114B1B68002B0AD0104B46
:102F4000019303230093002380220E490E48FEF7CD
:102F5000B7FE78607B68002B0AD14FF0500383F3F3
:102F60001188BFF36F8FBFF34F8F3B6000BFFEE749
:102F70007B6818460837BD4680BD00BFAC510020B5
:102F8000B0510020003500083130000880B584B011
:102F900000AFF860B9607A6008E0FB689B69BA68C6
:102FA0001344BB60FB681B6AF8689847FB689A6922
:102FB000BB68D118BB687A68F86800F0DDF8034692
:102FC000002BEAD100BF00BF1037BD4680BD000016
:102FD00080B584B000AF78603960144B1B68DB6843
:102FE000DB68FB60FB6804331846FDF757FEFB689F
:102FF00093F8243003F00403002B05D03A68796875
:10300000F868FFF7C3FF08E0FB6893F8243023F06B
:103010000103DAB2FB6883F82420FB681B6AF868B6
:10302000984700BF1037BD4680BD00BFA4510020A7
:1030300080B584B000AF786007F10803184600F04F
:1030400057F8F860BB681946F86800F003F800F01C
:10305000D5F8F1E780B584B000AF78603960FFF74C
:1030600025F807F10803184600F066F8F860BB6819
:10307000002B30D13B68002B0AD17A68FB689A425A
:1030800006D8FFF721F8F9687868FFF7A1FF24E078
:103090003B68002B08D0134B1B681B68002B01D129
:1030A000012300E000233B600F4B18687A68FB683F
:1030B000D31A3A681946FEF7CFFDFFF705F8034625
:1030C000002B0AD1094B4FF080521A60BFF34F8F8B
:1030D000BFF36F8F01E0FEF7F7FF00BF1037BD466B
:1030E00080BD00BFA8510020AC51002004ED00E0DD
:1030F00080B485B000AF78600E4B1B681B68002B56
:1031000001D1012200E000227B681A607B681B6805
:10311000002B05D1074B1B68DB681B68FB6001E0D7
:103120000023FB60FB6818461437BD465DF8047B3E
:10313000704700BFA451002080B584B000AF786014
:10314000FFF7BEF8F8600B4B1B68FA689A4205D28D
:1031500000F012F97B6801221A6002E07B6800220D
:103160001A60044AFB681360FB6818461037BD46B6
:1031700080BD00BFB451002080B586B000AFF860BC
:10318000B9607A603B6000237B61FB68BA685A6073
:10319000FB68FA681A61BA687B689A4212D87A6842
:1031A0003B68D21AFB689B699A4202D301237B6178
:1031B0001BE0104B1A68FB68043319461046FDF7F4
:1031C00034FD12E07A683B689A4206D2BA683B68DE
:1031D0009A4202D301237B6107E0074B1A68FB6820
:1031E000043319461046FDF720FD7B691846183751
:1031F000BD4680BDA8510020A451002080B588B0F4
:1032000000AFA6E0BB68002BC0F2A2803B69FB6167
:10321000FB695B69002B04D0FB6904331846FDF79A
:103220003DFD3B1D1846FFF787FFB861BB68013BBA
:10323000082B00F28E8001A252F823F061320008C0
:1032400061320008C9320008DD3200082733000867
:103250006132000861320008C9320008DD3200081E
:10326000FB6993F8243043F00103DAB2FB6983F879
:103270002420FA68FB699B69D118FB68BA69F86970
:10328000FFF77AFF0346002B63D0FB6993F82430E5
:1032900003F00403002B09D0FA68FB699B6913440F
:1032A000BA691946F869FFF771FE08E0FB6993F8FF
:1032B000243023F00103DAB2FB6983F82420FB6990
:1032C0001B6AF869984744E0FB6993F8243023F0BF
:1032D0000103DAB2FB6983F824203AE0FB6993F832
:1032E000243043F00103DAB2FB6983F82420FA6842
:1032F000FB699A61FB699B69002B0AD14FF050036F
:1033000083F31188BFF36F8FBFF34F8F7B6100BFD3
:10331000FEE7FB699A69BB69D118BB69BA69F869AC
:10332000FFF72AFF15E0FB6993F8243003F002034E
:10333000002B03D1F869FDF72DFB0AE0FB6993F838
:10334000243023F00103DAB2FB6983F8242000E083
:1033500000BF084B1B6807F1080100221846FEF762
:1033600067F90346002B7FF44DAF00BF00BF203745
:10337000BD4680BDAC51002080B582B000AF09E0F1
:103380000E4B1B68DB681B683B604FF0FF313868F1
:10339000FFF71EFE094B1B681B68002BF0D1074B83
:1033A0001B687B60064B1B68044A1360044A7B68F9
:1033B000136000BF0837BD4680BD00BFA451002088
:1033C000A851002080B500AFFDF75EFE0D4B1B68D5
:1033D000002B13D10C48FDF7FBFB0C48FDF7F8FB65
:1033E0000B4B094A1A600B4B084A1A6000220C2149
:1033F0000520FDF7B1FF0346024A1360FDF774FE96
:1034000000BF80BDAC5100207C51002090510020B5
:10341000A4510020A85100200D488546AFF300803C
:103420000C480D490D4A002302E0D458C45004331F
:10343000C4188C42F9D30A4A0A4C002301E01360F5
:103440000432A242FBD300F011F8FDF79DFCFEE729
:103450000080012000000020180000201035000826
:1034600018000020B8510020FEE7000070B50D4D97
:103470000D4C641BA4100026A64209D10B4D0C4C28
:1034800000F02EF8641BA4100026A64205D170BDE2
:1034900055F8043B98470136EEE755F8043B98474A
:1034A0000136F2E70835000808350008083500083D
:1034B0000C3500080A44914200F1FF3300D17047F7
:1034C00010B511F8014B03F8014F9142F9D110BD2D
:1034D00002440346934200D1704703F8011BF9E709
:1034E000F8B500BFF8BC08BC9E467047F8B500BFF1
:0834F000F8BC08BC9E467047C1
:1034F80049444C4500000000546D72205376630027
:04350800C5010008F1
:04350C00A101000811
:1035100000000100000000000101000000000000A8
:08352000AAAAAAAA04000000F7
:0400000508003419A2
:00000001FF
